:020000040800F2
:10000000381A0020CD070008D5070008D7070008D8
:10001000D9070008DB070008DD0700080000000022
:10002000000000000000000000000000450700087C
:10003000E107000800000000A5070008B507000858
:10004000E7070008E7070008E7070008E7070008D8
:10005000E7070008E7070008E7070008E7070008C8
:10006000E7070008E7070008E7070008C5090008D8
:10007000E1090008FD090008190A0008350A00080E
:10008000510A00086D0A0008E7070008E7070008A2
:10009000E7070008E7070008E7070008E707000888
:1000A000E7070008E7070008E7070008E707000878
:1000B000E7070008E7070008E7070008E707000868
:1000C000E7070008E7070008E7070008E707000858
:1000D000E7070008D10D0008E7070008E707000858
:1000E000E7070008E7070008E7070008E707000838
:1000F000E7070008E7070008E7070008E707000828
:10010000E7070008E7070008E7070008E707000817
:10011000E7070008E7070008E7070008E707000807
:10012000890A0008A90A0008C90A0008E50A0008A7
:1001300000F002F800F04AF80AA090E8000C8244AF
:100140008344AAF10107DA4501D100F03FF8AFF28C
:10015000090EBAE80F0013F0010F18BFFB1A43F0A5
:100160000103184798240000B82400000A4410F83E
:10017000014B14F00F0508BF10F8015B240908BFFC
:1001800010F8014B6D1E05D010F8013B6D1E01F8F3
:10019000013BF9D1641E03D0641E01F8015BFBD161
:1001A0009142E4D37047000000230024002500267C
:1001B000103A28BF78C1FBD8520728BF30C148BFCA
:1001C0000B6070471FB51FBD10B510BD00F0BFFB21
:1001D000114603B400F02FFF03BCFFF7F3FF00F05C
:1001E0005DFF00F0D9FB03B4FFF7EEFF03BC00F0A6
:1001F000E1FB00000246D2E84F0FC2E8431F03B103
:10020000F9E77047024652E8000F40EA010042E871
:10021000000303B1F7E7704710B5024652E8000F3C
:1002200020EA010442E8004303B1F7E710BD10B52E
:10023000024652E8000F00EA01048C4203D0BFF3EB
:100240002F8F002010BD20EA010442E8004303B1D3
:10025000EFE710BD10B5024652E8000F084203D187
:10026000BFF32F8F002010BD20EA010442E80043B5
:1002700003B1F1E710BD024652E8000F411C42E80D
:10028000001303B1F8E7704710B5024652E8000FBB
:10029000814202D8BFF32F8F10BD441C42E80043B7
:1002A00003B1F3E710BD10B50246D2E85F0F8142FB
:1002B00002D8BFF32F8F10BD441CC2E8534F03B1C7
:1002C000F3E710BD10B50246D2E85F0F441CA1420F
:1002D00000D80024C2E8534F03B1F5E710BD024631
:1002E00052E8000F10B9BFF32F8F7047411E42E84C
:1002F000001303B1F4E770470246D2E85F0F10B96C
:10030000BFF32F8F7047411EC2E8531F03B1F4E7BC
:100310007047024652E8000F10B9BFF32F8F7047A5
:10032000016842E8001303B1F4E7704702680A600D
:10033000BFF35F8F50E8002F0B689342F6D140E87F
:10034000001303B1F2E770470246D2E84F0FC2E84C
:10035000431F03B1F9E77047024652E8000F40EA35
:10036000010042E8000303B1F7E7704710B5024609
:1003700052E8000F20EA010442E8004303B1F7E726
:1003800010BD10B5024652E8000F00EA01048C428D
:1003900003D0BFF32F8F002010BD20EA010442E8F4
:1003A000004303B1EFE710BD10B5024652E8000F5D
:1003B000084203D1BFF32F8F002010BD20EA0104B3
:1003C00042E8004303B1F1E710BD024652E8000FD6
:1003D000411C42E8001303B1F8E7704710B502462C
:1003E00052E8000F814202D8BFF32F8F10BD441C8A
:1003F00042E8004303B1F3E710BD10B50246D2E86E
:100400005F0F814202D8BFF32F8F10BD441CC2E89A
:10041000534F03B1F3E710BD10B50246D2E85F0FAA
:10042000441CA14200D80024C2E8534F03B1F5E7B1
:1004300010BD024652E8000F10B9BFF32F8F70476E
:10044000411E42E8001303B1F4E770470246D2E8C8
:100450005F0F10B9BFF32F8F7047411EC2E8531FC3
:1004600003B1F4E77047024652E8000F10B9BFF33A
:100470002F8F7047016842E8001303B1F4E770471B
:1004800002680A60BFF35F8F50E8002F0B68934249
:10049000F6D140E8001303B1F2E770470246D2E814
:1004A0004F0FC2E8431F03B1F9E77047024652E815
:1004B000000F40EA010042E8000303B1F7E770478C
:1004C00010B5024652E8000F20EA010442E800435A
:1004D00003B1F7E710BD10B5024652E8000F00EA7D
:1004E00001048C4203D0BFF32F8F002010BD20EAFF
:1004F000010442E8004303B1EFE710BD10B5024626
:1005000052E8000F084203D1BFF32F8F002010BD27
:1005100020EA010442E8004303B1F1E710BD0246BE
:1005200052E8000F411C42E8001303B1F8E770479E
:1005300010B5024652E8000F814202D8BFF32F8F58
:1005400010BD441C42E8004303B1F3E710BD10B5F1
:100550000246D2E85F0F814202D8BFF32F8F10BD51
:10056000441CC2E8534F03B1F3E710BD10B5024677
:10057000D2E85F0F441CA14200D80024C2E8534FC8
:1005800003B1F5E710BD024652E8000F10B9BFF302
:100590002F8F7047411E42E8001303B1F4E7704704
:1005A0000246D2E85F0F10B9BFF32F8F7047411E8C
:1005B000C2E8531F03B1F4E77047024652E8000F48
:1005C00010B9BFF32F8F7047016842E8001303B1E1
:1005D000F4E7704702680A60BFF35F8F50E8002FAE
:1005E0000B689342F6D140E8001303B1F2E770477D
:1005F0000246D2E84F0FC2E8431F03B1F9E7704744
:10060000024652E8000F40EA010042E8000303B14D
:10061000F7E7704710B5024652E8000F20EA0104E0
:1006200042E8004303B1F7E710BD10B5024652E8B7
:10063000000F00EA01048C4203D0BFF32F8F00208B
:1006400010BD20EA010442E8004303B1EFE710BD0A
:1006500010B5024652E8000F084203D1BFF32F8FB6
:10066000002010BD20EA010442E8004303B1F1E795
:1006700010BD024652E8000F411C42E8001303B1CE
:10068000F8E7704710B5024652E8000F814202D8E1
:10069000BFF32F8F10BD441C42E8004303B1F3E7C2
:1006A00010BD10B50246D2E85F0F814202D8BFF3F9
:1006B0002F8F10BD441CC2E8534F03B1F3E710BDA8
:1006C00010B50246D2E85F0F441CA14200D80024B6
:1006D000C2E8534F03B1F5E710BD024652E8000FE0
:1006E00010B9BFF32F8F7047411E42E8001303B1CA
:1006F000F4E770470246D2E85F0F10B9BFF32F8FBF
:100700007047411EC2E8531F03B1F4E77047024629
:1007100052E8000F10B9BFF32F8F7047016842E80D
:10072000001303B1F4E7704702680A60BFF35F8FFC
:1007300050E8002F0B689342F6D140E8001303B154
:10074000F2E77047EFF30980816911F8021CD9B90B
:1007500001B590E80F10E047BDE800508CE80300B9
:10076000184B93E80600914208BF704719B12CE975
:10077000F00FC1F838C01A60906BB0E8F00F80F34A
:1007800009886FF0020E704710B50F4A136899423E
:1007900006D852F821400FC8A047EFF30984206023
:1007A00010BD000010B500F0EDFEBDE81040EFF305
:1007B000098CD5E710B501F05FF9BDE81040EFF303
:1007C000098CCDE71413002038250008094880471C
:1007D00009480047FEE7FEE7FEE7FEE7FEE7FEE723
:1007E000FEE7FEE7FEE7FEE704480549054A064B3B
:1007F00070470000010D0008310100083814002086
:10080000381A00203816002038160020032A40F23B
:10081000308010F0030C00F0158011F8013BBCF1A2
:10082000020F624498BF11F801CB00F8013B38BFBA
:1008300011F8013BA2F1040298BF00F801CB38BFC8
:1008400000F8013B11F0030300F04F80083AC0F0BC
:10085000088051F8043B083A51F804CBA0E808108E
:10086000F5E7121D5CBF51F8043B40F8043BAFF3C1
:100870000080D20724BF11F8013B11F801CB48BF1B
:1008800011F8012B24BF00F8013B00F801CB48BF51
:1008900000F8012B70474FF0000200B51346944654
:1008A0009646203922BFA0E80C50A0E80C50B1F1C8
:1008B0002001BFF4F7AF090728BFA0E80C5048BFDC
:1008C0000CC05DF804EB890028BF40F8042B08BF7A
:1008D000704748BF20F8022B11F0804F18BF00F876
:1008E000012B704770477047704710B5203AC0F031
:1008F0000B80B1E81850203AA0E81850B1E8185021
:10090000A0E81850BFF4F5AF5FEA027C24BFB1E85D
:100910001850A0E8185044BF18C918C0BDE81040CE
:100920005FEA827C24BF51F8043B40F8043B08BFD7
:100930007047D20728BF31F8023B48BF11F8012B9E
:1009400028BF20F8023B48BF00F8012B70477546CE
:1009500000F02CF8AE4605006946534620F007002B
:10096000854618B020B5FFF73FFFBDE820404FF0A7
:1009700000064FF000074FF000084FF0000B21F089
:100980000701AC46ACE8C009ACE8C009ACE8C00956
:10099000ACE8C0098D46704710B50446AFF300803F
:1009A0002046BDE81040FFF71EBC0000004870471D
:1009B000D813002001491820ABBEFEE72600020034
:1009C0007047704710B50449086800F00F00486090
:1009D000FFF7F7FF10BD0000000002407047000065
:1009E00010B504490868C0F3031002014A60FFF71C
:1009F000F5FF10BD000002407047000010B504492B
:100A00000868C0F3032002024A60FFF7F5FF10BD3B
:100A1000000002407047000010B504490868C0F3A8
:100A2000033002034A60FFF7F5FF10BD00000240EB
:100A30007047000010B504490868C0F30340020481
:100A40004A60FFF7F5FF10BD00000240704700004C
:100A500010B504490868C0F3035002054A60FFF767
:100A6000F5FF10BD000002407047000010B50449BA
:100A70000868C0F3036002064A60FFF7F5FF10BD87
:100A8000000002407047000010B50548006800F003
:100A90000F000349091D0860FFF7F4FF10BD0000B7
:100AA000000402407047000010B505480068C0F31C
:100AB0000310034A0101121D1160FFF7F3FF10BD7F
:100AC000000402407047000010B505480068C0F3FC
:100AD0000320034A0102121D1160FFF7F3FF10BD4E
:100AE0000004024070B50A4C2068C0F30330251D95
:100AF000002803D00103296000F00CF82068C0F33F
:100B00000340002803D00104296000F004F870BD00
:100B10000004024070477047704770477047704745
:100B2000704770477047704770477047704770470D
:100B300070477047704770477047704770477047FD
:100B400070477047704770477047704770477047ED
:100B500070477047704770477047704770477047DD
:100B600070477047704770477047704770477047CD
:100B700070477047704700F01F02012191404011FB
:100B8000800000F1E020C0F80011704730B4026B23
:100B9000002A13D0002301E0134652681AB1D4781A
:100BA000CD78AC42F8D34A608B600AB1916000E026
:100BB000C1620BB1596006E0016304E000224A60A3
:100BC0008A60C162016330BC2830FFF7FEBB00F0D1
:100BD00001B800000CB5002201920092274801687C
:100BE00041F4803101604FF4A063016801F40031E9
:100BF00000910199491C0191009911B901999942FB
:100C0000F3D10168890302D50121009100E000922F
:100C10000099012930D11A490A6842F010020A608D
:100C20000A6822F003020A600A6842F002020A60BF
:100C30004168416041684160416841F480614160C0
:100C4000416821F47C114160416841F4E811416040
:100C5000016841F08071016001688901FCD541683B
:100C600021F003014160416841F0020141604168A7
:100C7000C1F381010229FAD10CBD0000001002402D
:100C80000020024010B51A4A506800F00C01194BC0
:100C9000194800290ED004290ED008290ED003606F
:100CA0005168154AC1F30311121D515C0268CA4014
:100CB000026010BD0360F3E70360F1E7516801F4DF
:100CC0007011536803F48033022404EB914133B173
:100CD00053689B0307D5094B59430160E0E7074B75
:100CE00059430160DCE7034B59430160D8E700003A
:100CF0000010024000127A00E412002000093D00BA
:100D000010B50F48016841F00101016041680D4ACA
:100D10001140416001680C4A11400160016821F4F2
:100D200080210160416821F4FE0141604FF41F0100
:100D30008160FFF74CFF05494FF00060086010BD6F
:100D4000001002400000FFF8FFFFF6FE08ED00E093
:100D5000930707D4D20700F1280001D0FFF765BC44
:100D6000FFF776BC806AD30702D031EA000304D1D2
:100D700002F0010201400A4300D100207047000048
:100D800030B500230B4DEA6C02E0091B1346D26814
:100D900012B114698C42F8D901618360C2601AB142
:100DA0001469611A116190600BB1D86030BDE864BC
:100DB00030BD0000F8120020C168002901D082680F
:100DC0008A600249C068C86470470000F8120020B9
:100DD000014800F003B80000402500082DE9F003A9
:100DE0004468228800210023A5890F461540AD06DE
:100DF0004FF001063DD5056B95F805C0BCF1000F1D
:100E000003D0ED68022D04D007E0A188EE71202107
:100E10002FE0456BED69012D42D0A388456BAC688E
:100E200004F1010CC5F808C023704468A489650565
:100E30000BD4E40409D5456B4FEA1328AC6804F1E0
:100E4000010CC5F808C084F80080456B2C69641C4F
:100E50002C61456B2D68AC420BD14468A58925F007
:100E60001005A581046B6771046BE468022C19D02E
:100E700002214568AC891440E40602D5AC8841F0F3
:100E80004001AC891440240658D5446B94F820C026
:100E9000BCF1000F15D0AB8943F00103AB814DE0ED
:100EA000A488BBE7456BEC69EF61012C05D0022CEF
:100EB00005D0032CDDD10421DBE70121D9E7022194
:100EC000D7E7D4F814C06568654519D0036BDB68B3
:100ED000022B02D1E369022B72D0E3685D1CE5604E
:100EE0001B784468A4895FEA445C09D4E40407D50C
:100EF000446B05F1010CC4F80CC02C7843EA0423C0
:100F0000446B65696D1C65614468A380436B5C68D4
:100F10005B699C4212D143689C8924F080049C81C7
:100F200043689C8944F040049C81436B83F82170A2
:100F3000036BDC68022C45D041F0010143689C89B9
:100F40001440640605D59C8924F040049C8141F03E
:100F50000801130705D543689B88036BDE7141F0D8
:100F60002001930705D543689B88036B5E7241F4AB
:100F70008071D30705D043689B88036B9E7241F450
:100F80000071D30508D543681C8824F480741C8044
:100F9000036B1E7241F08001920506D542681388EA
:100FA00023F40073138041F48061002914D0006B96
:100FB0000268002A10D0BDE8F00308461047FFE79A
:100FC000638B9DE7446BE469012CB7D1DB7ADB06C8
:100FD000B4D441F00101B1E7BDE8F003704710B5AA
:100FE000044600F0C1FD002806D02068BDE810408E
:100FF0004FF0FF3100F026B910BD006800F042B993
:1010000010B50446002000F05BF9206008B1012013
:1010100010BD2146052000F099F9002010BD10B543
:10102000044600F0A1FD002804D02068BDE810406F
:1010300000F06EB910BD00F05DB8000070B5094C4D
:10104000B4F8585004F15A00FFF7AAFA40B1294603
:1010500004F15E00FFF78AFA216E51F8200070BD9E
:10106000002070BDF812002070B505460A4EB6F893
:10107000584006F15A002146FFF769FAA04209D20A
:10108000214606F15C00FFF771FA316E41F82050FD
:10109000012070BD002070BDF812002010B5FFF7D0
:1010A0002FFEFFF7EFFD00F025F800F047F80020D5
:1010B00010BD000010B5EFF30580002805D1EFF357
:1010C000108010B9EFF3118030B14FF0FF3420469B
:1010D000FFF724FD204610BDEFF31480C00703D0B6
:1010E000DFF80CC000DF10BDBDE8104000F04EBDC1
:1010F0008D1B000810B5FFF712FDEFF3058028B92E
:10110000EFF3108010B9EFF3118030B16FF00504E8
:101110002046FFF702FD204610BDEFF31480800744
:1011200006D4EFF30880203820F0070080F3098808
:10113000DFF804C000DF10BDA11B000810B5FFF7E9
:10114000F0FCEFF3058028B9EFF3108010B9EFF34E
:10115000118030B16FF005042046FFF7DEFC204619
:1011600010BDEFF31480800706D4EFF30880203819
:1011700020F0070080F30988DFF804C000DF10BD0D
:10118000611D00082DE9F04104460D4616461F4634
:101190003B46324629462046FFF7D1FCEFF3058057
:1011A00028B9EFF3108010B9EFF3118090B3A8467F
:1011B00034B12078082803D1B8F1000F00D047B12E
:1011C0006FF0030529462046FFF7B4FC2846BDE82A
:1011D000F08160786FF00207E8B104F10C0000F0D4
:1011E0003EF90546EDB1414605F10C00626AFFF794
:1011F0000DFB07202870012068700027AF70EE708B
:101200002846846000F0E4F941462046FFF794FC4C
:101210003846DCE70BE039462046FFF78BFC3846C2
:10122000D5E741462046FFF789FC3846CFE7204600
:10123000294632463B46DFF808C000DFC7E700001A
:10124000F91D000870B505460C4621462846FFF7F3
:101250007AFCEFF3058028B9EFF3108010B9EFF3B3
:10126000118038B16FF0050421462846FFF772FC63
:10127000204670BD28462146DFF804C000DF70BD5F
:10128000FD1E000870B504462046FFF761FCEFF331
:10129000058028B9EFF3108010B9EFF3118038B151
:1012A0006FF0050529462046FFF754FC284670BD1F
:1012B0002046DFF808C000DF70BD0000E11F000815
:1012C00010B504462046FFF746FCEFF3058129B927
:1012D000EFF3108111B9EFF3118131B16FF0050116
:1012E0000020FFF737FC002010BD2046EFF31481EB
:1012F000890706D4EFF30881203921F0070181F333
:101300000988DFF808C000DF10BD0000B520000824
:1013100070B504462046FFF720FCEFF3058028B99E
:10132000EFF3108010B9EFF3118038B16FF00505BD
:1013300029462046FFF70EFC284670BD2046DFF800
:1013400008C000DF70BD00004D210008FEE7FEE789
:1013500070B50446002C02D009B1900805D00023D6
:101360002046FFF7E0FB002070BD0831C91D21F0C9
:10137000070104F1080003681D1A466826F00306F9
:10138000AD1B8D4214D363680B4463604368C3B1E3
:1013900023F003031D1803682B6041EA02036B600E
:1013A000056008352B462046FFF7BDFB284670BD7B
:1013B00018460368002BDED12046FFF7B4FB00205F
:1013C00070BD41EA0203436000F10805EAE770B529
:1013D000002806D029B1A1F10804002200F1080379
:1013E00007E00022FFF7A3FB002070BD1A461B6830
:1013F0007BB1A342FAD15D68446825F00305641B04
:1014000044605AB11B6813600122FFF790FB012072
:1014100070BD0022FFF78BFB002070BD00225A60D8
:10142000F2E710B5002805D0420703D14A0701D1E1
:10143000182904D20022FFF77BFB002010BD0160B9
:101440001022426000F108024318083B1360002498
:101450001C6054600122FFF76BFB012010BD70B5CA
:101460000446002C0CD0201D2168FEF70DFF2168DA
:1014700088420BD204F11400FEF74BFF054606E04C
:1014800000210846FFF750FB002070BD00252946CB
:101490002046FFF749FB284670BD70B504460E464E
:1014A000002C05D0E068B04202D82069B04208D8CC
:1014B0006FF003052A4631462046FFF736FB2846E3
:1014C00070BD201DFEF70BFF30B1314604F1140052
:1014D000FEF72CFF002501E06FF002052A46314699
:1014E0002046FFF722FB284670BD2DE9F0410D464E
:1014F00016461C46002811D085B17EB174B1056036
:10150000002747608660C460446105FB06410161B5
:10151000234632462946FFF709FB05E00020BDE8D7
:10152000F081A019206004466D1EFAD127600120C9
:10153000F5E72DE9F041044600271FE06669E078F1
:1015400000071AD5277600212046FFF707FBA06881
:1015500098B1204600F0B4F905460022114628460D
:1015600000F070FAE560E86A60612761EC620120D2
:10157000207601212046FFF7E9FA3446002CDDD120
:10158000BDE8F08110B5114CFFF758FD48B1017866
:101590000829F9D2DFE801F0040A040D041013163B
:1015A000F2E7BDE81040002000F026B9616E8847E0
:1015B000EAE7A16E8847E7E7E16E8847E4E7216F35
:1015C0008847E1E7616F8847DEE70000F8120020F6
:1015D00010B504462046FFF747FD50B10848417A50
:1015E00011B10121C17210BD06494FF08050086051
:1015F00010BD2146BDE810400220FFF7A7BE000045
:10160000F812002004ED00E04FF0E0200069704780
:101610004FF0E021072008617047000008480949A1
:10162000C0684968B0FBF1F04FF0E021401E48610E
:10163000002088610449FF200870481770470000A7
:10164000F81200209425000823ED00E010B50121D8
:10165000417090F92030084A916801E00A46896893
:1016600019B191F920409C42F8DCC2608160906021
:10167000002900D0C86010BD1C13002030B5154DE6
:101680004A1C02D000236A6B11E00023AA6B01E020
:1016900013461269002AFBD1C161436102610BB19B
:1016A000186130BDA86330BD091B1346126912B121
:1016B000D4698C42F8D9C161436102610BB11861F0
:1016C00000E06863002AEED0D369591AD1615061F5
:1016D00030BD0000F812002030B5C269154B4169D9
:1016E000541C4FF0000501D081B112E011B99A6B82
:1016F000824207D1026902B15161416919B102699F
:101700000A61456130BD0069986330BD596B814203
:10171000FBD1016929B1CC692244CA61D0E9042115
:101720005161416919B102690A61456130BD0069C1
:10173000586330BDF812002070B52E4D6C6B002C34
:1017400057D0E069401EE061002852D161786329DA
:1017500022D008DC13290DD033290ED043290FD015
:10176000532930D112E073291CD0832920D093292A
:1017700029D123E0FFF7F6F925E0FFF7F8F922E099
:10178000204600F0CAF8FFF7C7F91CE0204600F039
:10179000C4F8FFF7DAF916E0204600F0BEF8FFF7CC
:1017A000DEF910E0204600F0B8F8FFF7C2F90AE0D1
:1017B000204600F0B2F8FFF7BEF904E0204600F042
:1017C000ACF8FFF7BEF9204600F0ECF801682046BF
:1017D000FFF7D0F9204600F094F8204600F0DAF840
:1017E000246914B1E0690028B0D00CB10020606118
:1017F0006C6370BDF812002010B504461A49087ACF
:10180000CB69002C02D0022818D026E0CC6A02282E
:1018100028D1002B26D0002C24D094F9200093F955
:10182000201088421EDD204600F06BF81846FFF7B6
:101830000DFF2046BDE8104000F0CCB86BB194F924
:10184000200093F92010884207DD1846FFF7FEFEBE
:101850002046BDE8104000F0BDB82046BDE810406D
:1018600000F098B810BD0000F812002070B50446D2
:1018700000206070A078114D81070BD5C00605D5FA
:10188000216BD5F88800FFF708FE03E0216BA86FF5
:10189000FFF79DFDA078C0070ED0D5F88C0020B1D1
:1018A0002146BDE87040FFF7F8BD2146D5F8840019
:1018B000BDE87040FFF78BBD70BD0000F81200203E
:1018C00001468868002806D082688A60826802B172
:1018D000D1600021C160704710B5002910D091F986
:1018E0002030826801E0104692681AB192F92040D7
:1018F0009C42F8DAC8608A608160002A00D0D1601A
:1019000010BDC168002907D082688A60816809B16A
:10191000C268CA600021C160704700E0C06800284A
:1019200002D001780129F9D0704710B50346184656
:1019300002E0C06800280CD00278012AF9D00446E1
:101940001846FFF7DEFF2046BDE810401946FFF7B6
:10195000C3BF10BD70B504466078002819D00428B4
:1019600017D0332815D194F823202046616AFFF759
:10197000EFF90546002D0CD000222946204600F044
:1019800061F894F823102A46606ABDE87040FFF7BA
:10199000EDB870BD0121417001460148FFF79CBFC1
:1019A0001C130020806B2030704700000748C1697D
:1019B00000290AD08A6B086B824203D90068044A66
:1019C000904202D00120FFF7C1BC7047F8120020FE
:1019D000A52E5AE210B50446022060700448046245
:1019E000FFF7E4FF2046BDE81040FFF7C2B8000053
:1019F000F812002070B505460E461148C469002C47
:101A000007D0017A022906D02046FFF77AFF00208E
:101A100070BD002070BDC06A80B131462046FFF71E
:101A20009FF8657031462046FFF728FE04482430B1
:101A3000FFF746FFFFF7CEFF012070BD002070BD0D
:101A4000F812002070B506460C4615462146304671
:101A5000FFF790F83046FFF7A5FF04603046FFF728
:101A60003BFE25B13046BDE87040FFF7C5BE3046AD
:101A7000BDE87040FFF78EBF70B5FFF7C5FD1C4D88
:101A8000D5E90401401C41F10001C5E9040100F061
:101A900031F8FFF751FE0020FFF7AEFEAA6C002AD6
:101AA00005D0296C286A814202D028646A6470BD1E
:101AB000686C08B1401E6864686C0028F7D1287A09
:101AC0000228F4D1EC6A002CF1D094F9200091F9AD
:101AD00020108842EBD12046FFF713FF286CFFF758
:101AE00059FF2046FFF776FF2C64A86C686470BD30
:101AF000F812002070B5144DEC6C002C1DD020693C
:101B0000401E206114E02046FFF756F900231A46D4
:101B100004F11801686DFFF735FB18B12146032069
:101B2000FFF714FCE078012808D001206070EC6C0D
:101B3000002C02D020690028E5D070BD20466169E4
:101B4000FFF71EF9F3E70000F8120020FFF70DF889
:101B5000DFF810C000DF4FF0FF310020FFF704F87E
:101B6000FEE700004922000810B5074C2078002845
:101B700001D0012010BDFFF79DFA012802DD0120F0
:101B8000207010BD002010BDE012002010B5034CE5
:101B9000207AFEF7C3FF207A10BD0000F812002063
:101BA00070B56C4C207A012807D04FF0FF3640B159
:101BB0003046FEF7B2FF304670BDFEF7B1FF0020A1
:101BC00070BD6448A0210830FEF765FE624D686D67
:101BD000482805D26FF00A00FEF79FFF304670BD1F
:101BE000E868C0B1288AB0B1E8682066288AA4F8FD
:101BF0005800A868A064D5E90B01FFF712FC10B1EA
:101C0000E86AC4F88400D5E90501FFF70AFC38B199
:101C10006869A06707E03046FEF77FFF304670BD79
:101C2000D4F88400A067D5E90701FFF7FAFB10B1EB
:101C3000E869E06702E0D4F88400E067D5E90901CB
:101C4000FFF7EFFB18B1686AC4F8800003E0D4F82E
:101C50008400C4F88000686B48B1686BD0E9022347
:101C60000168FFF742FC10B1686BC4F88800A86BEC
:101C700048B1A86BD0E902230168FFF736FC10B128
:101C8000A86BC4F88C00E86B48B1E86BD0E902237C
:101C90000168FFF72AFC10B1E86BC4F89000286CCB
:101CA00048B1286CD0E902230168FFF71EFC10B18F
:101CB000286CC4F89400686C48B1686CD0E90223C1
:101CC0000168FFF712FC10B1686CC4F89800A86CAA
:101CD00048B1A86CD0E902230168FFF706FC10B1F7
:101CE000A86CC4F89C00E86C48B1E86CD0E9022309
:101CF0000168FFF7FAFB10B1E86CC4F8A000286D8A
:101D000048B1286DD0E902230168FFF7EEFB10B15E
:101D1000286DC4F8A4001148FF210170007860F01C
:101D2000FF00C043B0FA80F0C0F120000B49163923
:101D30000968C1F30221814200D3481CFE21814081
:101D40000648C01E017001202072FEF7E9FE002047
:101D500070BD0000F81200209425000822ED00E07C
:101D600070B5214C4FF0FF35207A012804D0A81F10
:101D7000FEF7D3FE284670BD1C4E206B30B9002103
:101D80001B48B26D00F09AFA206368B116482430FF
:101D9000FFF796FD68B1FFF71DFE3078C0070DD044
:101DA000022080F314880CE02846FEF7B6FE284691
:101DB00070BD2846FEF7B1FE284670BD032080F3B3
:101DC00014880C480068E060FFF728FCA061002838
:101DD00001DBFEF7D0FEFFF71BFC02202072FEF7AE
:101DE000A1FE002070BD0000F8120020942500081C
:101DF0004F130008E41200202DE9F04704460F4677
:101E000016469846002C2AD02078082827D137B3C8
:101E100060786FF0020950B3A06810B14078832851
:101E20002BD004F10C00FFF71AFB0546F5B3394639
:101E300005F10C00626AFEF7E9FC0720287001201A
:101E400068700020A870EE7029462046FEF79EFEBE
:101E500039462046FEF771FE0020BDE8F0876FF09E
:101E6000030529462046FEF765FE2846F5E7494664
:101E70002046FEF75FFE4846EFE739462046FEF76C
:101E80005CFE2046FFF71CFD054601220021284686
:101E9000FFF7D8FD2846FFF785FD0546626A3946FB
:101EA000A868FEF7B3FCE86810B100E006E0067031
:101EB0002046A968FEF746FE0020CEE7B8F1000FE5
:101EC00014D0424639462046FEF73AFE0A48C16918
:101ED0002046FFF701FD41469320FFF78BFDEFF30E
:101EE00009808760C6606FF00100B6E7394620467A
:101EF000FEF724FE4846B0E7F81200202DE9F04135
:101F000004460E463548C569002D0CD014B1207822
:101F1000042810D06FF0030529462046FEF71AFE6C
:101F20002846BDE8F0816FF007012046FEF712FE5B
:101F30004FF0FF30F5E760786FF0020788B1207E40
:101F4000A8B1E178CA0726D0E268AA4223D1FF28C7
:101F50001AD0401CC1B221762046FEF7F7FD0020C2
:101F6000DFE739462046FEF7F5FD3846D9E7E5605C
:101F7000E86A606100202061EC6201212176204640
:101F8000FEF7E4FD0020CCE76FF00F012046FEF7DE
:101F9000E1FD3846C5E7E6B188070BD5E16895F95C
:101FA000200091F92020824204DA81F82000E068C4
:101FB000FFF7BBFC31462046FEF7C6FD294620460A
:101FC000FFF78AFC31465320FFF714FD6FF0010044
:101FD000A7E72046FEF7C0FD3846A2E7F81200202A
:101FE00070B50446002C02D02078042807D06FF08A
:101FF000030529462046FEF7ADFD284670BD6078F2
:102000006FF0020568B100206070207ED0B3E268F6
:10201000606908B121690161206940B1616941616C
:1020200007E029462046FEF795FD284670BD606909
:10203000D062E078800716D592F92110D06A07E0C7
:10204000836823B193F920308B4200DD1946406943
:102050000028F5D192F92000884204D082F820109F
:102060001046FFF762FCA06848B12046FFF728FC45
:1020700000222946FFF7E6FCA0680028F5D10020E1
:10208000FFF7BAFBA078C0070CD00949D1F8980037
:1020900018B12146FFF701FA04E0D1F88400214687
:1020A000FFF795F92046FEF754FD002070BD0000B3
:1020B000F812002070B5002816D0066845688468BC
:1020C0006FF008014CB1A20702D1C0681C280ED2E3
:1020D0000020FEF73FFD002070BDC06838B1002031
:1020E000FEF738FD002070BD00260025002494B1C5
:1020F00000200421217001216170A070E5706660EC
:102100000020A060E0602061606120762046FEF73C
:102110001EFD204670BD0C49D1F8980018B1FFF79C
:102120009EF9044606E0D1F8840001221C21FFF745
:102130000FF904460CB10120DBE76FF00401002029
:10214000FEF708FD002070BDF812002070B50446AF
:102150003C48C569002D0BD014B1207804280FD05D
:102160006FF0030529462046FEF7F4FC284670BDB3
:102170006FF007012046FEF7EDFC4FF0FF3070BD19
:1021800060786FF0020648B1E068A8420CD06FF0AA
:102190000D012046FEF7DEFC304670BD314620467C
:1021A000FEF7D8FC304670BD207E48B1401EC1B25B
:1021B00021762046FEF7D2FC207E40B1002070BD83
:1021C0006FF00E012046FEF7C5FC304670BD606919
:1021D00008B121690161206910B16169416101E0C3
:1021E0006069E862E07880070FD595F92110E86A08
:1021F00007E0826822B192F920208A4200DD114670
:1022000040690028F5D185F82010A068A0B12046CB
:10221000FFF756FB0546002211462846FFF712FC41
:10222000E560E86A606100202061EC6201202076B0
:1022300001212046FEF78AFC0020FFF7DDFA00208E
:1022400070BD0000F812002070B51B4DEC69002C29
:1022500031D0E06AFFF76DF9A06930B10022114674
:10226000FFF7F0FBA069FEF783FC287A022822D151
:10227000E86A00281FD0EFF30980A0630E482430DD
:10228000FFF71EFBFFF7A6FB0020E861E078C00720
:1022900001D0A06918B12046FFF7E8FA06E0042053
:1022A00060700020E060E86BA060EC632046BDE851
:1022B0007040FEF758BC70BDF81200202DE9F74FB2
:1022C00082B08146B9F1000F0FD06FF00A01AAB3B6
:1022D00010680190D2F804A094681569566997694E
:1022E0008B1CA4B1A0070CD108E06FF00301002003
:1022F000FEF73AFC002005B0BDE8F08FD068442816
:102300000DD219460020FEF72FFC0020F3E7D0681D
:1023100028B119460020FEF727FC0020EBE715B195
:1023200068070CD15EB17FB1781E382815D36FF0E5
:102330000B010020FEF718FC0020DCE706E000207F
:10234000FEF712FC0020D6E7182706E000200190D7
:102350008246002400250026182746B1700701D1C7
:10236000482E04D20020FEF7FFFB0020C3E7DFF871
:1023700054811CB14FF0000BCDB123E0D8F88C0094
:1023800018B1FFF76CF8044606E001224421D8F8A2
:102390008400FEF7DDFF044614B14FF0010BEBE7BC
:1023A0006FF004010020FEF7DFFB0020A3E7EEB38F
:1023B00000223146D8F87800FEF7CAFF0546B5B3CB
:1023C0004BF0020B01202070607084F802B084F89A
:1023D00003A0019860600021A160E160216161615A
:1023E000A161E16184F8207084F82170FD2084F8F7
:1023F000220084F823106162A162E16225636663B2
:10240000A8194038A063C4F83C902F4801C52F4854
:10241000007840073AD56FF0100000EB9600A0B3AB
:102420004FF0CC3204C5401E002801E002E016E067
:10243000F8D12CE02548466DD8F8880038B1FFF770
:102440000EF805462800BAD04BF0100BB7E7002273
:102450003146D8F87800FEF77BFF0546AFE76FF00E
:1024600004010020FEF780FB5FEACB700BD0D8F8A8
:102470008C0018B12146FFF710F804E02146D8F887
:102480008400FEF7A4FF002035E700E0A56B0D20D7
:1024900002C5401E0028FBD10D482860C5F80490F5
:1024A0004FF08070A860039845F8140C0948C8F8EC
:1024B00064002046FEF755FB2046FFF79DF92046B5
:1024C00019E70000F8120020A52E5AE29425000812
:1024D0004D1B000855190008000000000000000016
:1024E000C41000204400000050110020C80000006B
:1024F00001000000000000000000000000000000DB
:102500000000000008110020440000001812002004
:10251000C8000000280000000000000000000000CB
:102520000000000000000000401000203400000007
:10253000741000205000000000000000030202029E
:10254000390600000038014000A24A04782500083E
:1025500080250008000000000000000000000000CE
:102560002200220025000000000000000000000002
:10257000A0130020B413002000080140090000004F
:10258000000801400A0000005254582056352E31F0
:102590002E30000003000000E803000005000000EA
:1025A00000100020100000000000000000000000EB
:1025B000000000000000000000000000000000001B
:1025C00000000020001000000000000000000000DB
:1025D00000000000000000000000000000000000FB
:1025E0000000000000000000C8000000D82400081F
:1025F000FC24000820250008040000001C26000818
:1026000000000020A01300006C0100085C260008F8
:10261000A013002098060000A801000801FF01FF98
:1026200001FF01FF01FF01FF01FF01FF01FF01FFAA
:1026300001FF01FF01FF01FF01FF01FF01FF01FF9A
:1026400001FFC194A24A042B0102030406070809F2
:0C265000882506A1089017FB020000007E
:04000005080007CD1B
:00000001FF
